{
    "contractName": "OptimizedApeCoinStaking",
    "abi": [
        {
            "inputs": [
                {
                    "internalType": "address",
                    "name": "_apeCoinContractAddress",
                    "type": "address"
                },
                {
                    "internalType": "address",
                    "name": "_baycContractAddress",
                    "type": "address"
                },
                {
                    "internalType": "address",
                    "name": "_maycContractAddress",
                    "type": "address"
                },
                {
                    "internalType": "address",
                    "name": "_bakcContractAddress",
                    "type": "address"
                }
            ],
            "stateMutability": "nonpayable",
            "type": "constructor"
        },
        {
            "inputs": [],
            "name": "BAKCAlreadyPaired",
            "type": "error"
        },
        {
            "inputs": [],
            "name": "BAKCNotOwnedOrPaired",
            "type": "error"
        },
        {
            "inputs": [],
            "name": "CallerNotOwner",
            "type": "error"
        },
        {
            "inputs": [],
            "name": "CallerNotTokenOwnerInPair",
            "type": "error"
        },
        {
            "inputs": [],
            "name": "DepositMoreThanOneAPE",
            "type": "error"
        },
        {
            "inputs": [],
            "name": "EndNotWholeHour",
            "type": "error"
        },
        {
            "inputs": [],
            "name": "ExceededCapAmount",
            "type": "error"
        },
        {
            "inputs": [],
            "name": "ExceededStakedAmount",
            "type": "error"
        },
        {
            "inputs": [],
            "name": "InvalidPoolId",
            "type": "error"
        },
        {
            "inputs": [],
            "name": "NotOwnerOfBAKC",
            "type": "error"
        },
        {
            "inputs": [],
            "name": "NotOwnerOfMain",
            "type": "error"
        },
        {
            "inputs": [],
            "name": "ProvidedTokensNotPaired",
            "type": "error"
        },
        {
            "inputs": [],
            "name": "SplitPairCantPartiallyWithdraw",
            "type": "error"
        },
        {
            "inputs": [],
            "name": "StartMustBeMoreThanEnd",
            "type": "error"
        },
        {
            "inputs": [],
            "name": "StartMustEqualLastEnd",
            "type": "error"
        },
        {
            "inputs": [],
            "name": "StartNotWholeHour",
            "type": "error"
        },
        {
            "inputs": [],
            "name": "TokenNotOwnedOrPaired",
            "type": "error"
        },
        {
            "anonymous": false,
            "inputs": [
                {
                    "indexed": true,
                    "internalType": "address",
                    "name": "user",
                    "type": "address"
                },
                {
                    "indexed": false,
                    "internalType": "uint256",
                    "name": "amount",
                    "type": "uint256"
                },
                {
                    "indexed": false,
                    "internalType": "address",
                    "name": "recipient",
                    "type": "address"
                }
            ],
            "name": "ClaimRewards",
            "type": "event"
        },
        {
            "anonymous": false,
            "inputs": [
                {
                    "indexed": true,
                    "internalType": "address",
                    "name": "user",
                    "type": "address"
                },
                {
                    "indexed": true,
                    "internalType": "uint256",
                    "name": "poolId",
                    "type": "uint256"
                },
                {
                    "indexed": false,
                    "internalType": "uint256",
                    "name": "amount",
                    "type": "uint256"
                },
                {
                    "indexed": false,
                    "internalType": "uint256",
                    "name": "tokenId",
                    "type": "uint256"
                }
            ],
            "name": "ClaimRewardsNft",
            "type": "event"
        },
        {
            "anonymous": false,
            "inputs": [
                {
                    "indexed": true,
                    "internalType": "address",
                    "name": "user",
                    "type": "address"
                },
                {
                    "indexed": false,
                    "internalType": "uint256",
                    "name": "amount",
                    "type": "uint256"
                },
                {
                    "indexed": false,
                    "internalType": "uint256",
                    "name": "mainTypePoolId",
                    "type": "uint256"
                },
                {
                    "indexed": false,
                    "internalType": "uint256",
                    "name": "mainTokenId",
                    "type": "uint256"
                },
                {
                    "indexed": false,
                    "internalType": "uint256",
                    "name": "bakcTokenId",
                    "type": "uint256"
                }
            ],
            "name": "ClaimRewardsPairNft",
            "type": "event"
        },
        {
            "anonymous": false,
            "inputs": [
                {
                    "indexed": true,
                    "internalType": "address",
                    "name": "user",
                    "type": "address"
                },
                {
                    "indexed": false,
                    "internalType": "uint256",
                    "name": "amount",
                    "type": "uint256"
                },
                {
                    "indexed": false,
                    "internalType": "address",
                    "name": "recipient",
                    "type": "address"
                }
            ],
            "name": "Deposit",
            "type": "event"
        },
        {
            "anonymous": false,
            "inputs": [
                {
                    "indexed": true,
                    "internalType": "address",
                    "name": "user",
                    "type": "address"
                },
                {
                    "indexed": true,
                    "internalType": "uint256",
                    "name": "poolId",
                    "type": "uint256"
                },
                {
                    "indexed": false,
                    "internalType": "uint256",
                    "name": "amount",
                    "type": "uint256"
                },
                {
                    "indexed": false,
                    "internalType": "uint256",
                    "name": "tokenId",
                    "type": "uint256"
                }
            ],
            "name": "DepositNft",
            "type": "event"
        },
        {
            "anonymous": false,
            "inputs": [
                {
                    "indexed": true,
                    "internalType": "address",
                    "name": "user",
                    "type": "address"
                },
                {
                    "indexed": false,
                    "internalType": "uint256",
                    "name": "amount",
                    "type": "uint256"
                },
                {
                    "indexed": false,
                    "internalType": "uint256",
                    "name": "mainTypePoolId",
                    "type": "uint256"
                },
                {
                    "indexed": false,
                    "internalType": "uint256",
                    "name": "mainTokenId",
                    "type": "uint256"
                },
                {
                    "indexed": false,
                    "internalType": "uint256",
                    "name": "bakcTokenId",
                    "type": "uint256"
                }
            ],
            "name": "DepositPairNft",
            "type": "event"
        },
        {
            "anonymous": false,
            "inputs": [
                {
                    "indexed": true,
                    "internalType": "address",
                    "name": "previousOwner",
                    "type": "address"
                },
                {
                    "indexed": true,
                    "internalType": "address",
                    "name": "newOwner",
                    "type": "address"
                }
            ],
            "name": "OwnershipTransferred",
            "type": "event"
        },
        {
            "anonymous": false,
            "inputs": [
                {
                    "indexed": true,
                    "internalType": "uint256",
                    "name": "poolId",
                    "type": "uint256"
                },
                {
                    "indexed": false,
                    "internalType": "uint256",
                    "name": "lastRewardedBlock",
                    "type": "uint256"
                },
                {
                    "indexed": false,
                    "internalType": "uint256",
                    "name": "stakedAmount",
                    "type": "uint256"
                },
                {
                    "indexed": false,
                    "internalType": "uint256",
                    "name": "accumulatedRewardsPerShare",
                    "type": "uint256"
                }
            ],
            "name": "UpdatePool",
            "type": "event"
        },
        {
            "anonymous": false,
            "inputs": [
                {
                    "indexed": true,
                    "internalType": "address",
                    "name": "user",
                    "type": "address"
                },
                {
                    "indexed": false,
                    "internalType": "uint256",
                    "name": "amount",
                    "type": "uint256"
                },
                {
                    "indexed": false,
                    "internalType": "address",
                    "name": "recipient",
                    "type": "address"
                }
            ],
            "name": "Withdraw",
            "type": "event"
        },
        {
            "anonymous": false,
            "inputs": [
                {
                    "indexed": true,
                    "internalType": "address",
                    "name": "user",
                    "type": "address"
                },
                {
                    "indexed": true,
                    "internalType": "uint256",
                    "name": "poolId",
                    "type": "uint256"
                },
                {
                    "indexed": false,
                    "internalType": "uint256",
                    "name": "amount",
                    "type": "uint256"
                },
                {
                    "indexed": false,
                    "internalType": "address",
                    "name": "recipient",
                    "type": "address"
                },
                {
                    "indexed": false,
                    "internalType": "uint256",
                    "name": "tokenId",
                    "type": "uint256"
                }
            ],
            "name": "WithdrawNft",
            "type": "event"
        },
        {
            "anonymous": false,
            "inputs": [
                {
                    "indexed": true,
                    "internalType": "address",
                    "name": "user",
                    "type": "address"
                },
                {
                    "indexed": false,
                    "internalType": "uint256",
                    "name": "amount",
                    "type": "uint256"
                },
                {
                    "indexed": false,
                    "internalType": "uint256",
                    "name": "mainTypePoolId",
                    "type": "uint256"
                },
                {
                    "indexed": false,
                    "internalType": "uint256",
                    "name": "mainTokenId",
                    "type": "uint256"
                },
                {
                    "indexed": false,
                    "internalType": "uint256",
                    "name": "bakcTokenId",
                    "type": "uint256"
                }
            ],
            "name": "WithdrawPairNft",
            "type": "event"
        },
        {
            "inputs": [
                {
                    "internalType": "uint256",
                    "name": "_poolId",
                    "type": "uint256"
                },
                {
                    "internalType": "uint256",
                    "name": "_amount",
                    "type": "uint256"
                },
                {
                    "internalType": "uint256",
                    "name": "_startTimestamp",
                    "type": "uint256"
                },
                {
                    "internalType": "uint256",
                    "name": "_endTimeStamp",
                    "type": "uint256"
                },
                {
                    "internalType": "uint256",
                    "name": "_capPerPosition",
                    "type": "uint256"
                }
            ],
            "name": "addTimeRange",
            "outputs": [],
            "stateMutability": "nonpayable",
            "type": "function"
        },
        {
            "inputs": [
                {
                    "internalType": "address",
                    "name": "_recipient",
                    "type": "address"
                }
            ],
            "name": "claimApeCoin",
            "outputs": [],
            "stateMutability": "nonpayable",
            "type": "function"
        },
        {
            "inputs": [
                {
                    "components": [
                        {
                            "internalType": "uint128",
                            "name": "mainTokenId",
                            "type": "uint128"
                        },
                        {
                            "internalType": "uint128",
                            "name": "bakcTokenId",
                            "type": "uint128"
                        }
                    ],
                    "internalType": "struct OptimizedApeCoinStaking.PairNft[]",
                    "name": "_baycPairs",
                    "type": "tuple[]"
                },
                {
                    "components": [
                        {
                            "internalType": "uint128",
                            "name": "mainTokenId",
                            "type": "uint128"
                        },
                        {
                            "internalType": "uint128",
                            "name": "bakcTokenId",
                            "type": "uint128"
                        }
                    ],
                    "internalType": "struct OptimizedApeCoinStaking.PairNft[]",
                    "name": "_maycPairs",
                    "type": "tuple[]"
                },
                {
                    "internalType": "address",
                    "name": "_recipient",
                    "type": "address"
                }
            ],
            "name": "claimBAKC",
            "outputs": [],
            "stateMutability": "nonpayable",
            "type": "function"
        },
        {
            "inputs": [
                {
                    "internalType": "uint256[]",
                    "name": "_nfts",
                    "type": "uint256[]"
                },
                {
                    "internalType": "address",
                    "name": "_recipient",
                    "type": "address"
                }
            ],
            "name": "claimBAYC",
            "outputs": [],
            "stateMutability": "nonpayable",
            "type": "function"
        },
        {
            "inputs": [
                {
                    "internalType": "uint256[]",
                    "name": "_nfts",
                    "type": "uint256[]"
                },
                {
                    "internalType": "address",
                    "name": "_recipient",
                    "type": "address"
                }
            ],
            "name": "claimMAYC",
            "outputs": [],
            "stateMutability": "nonpayable",
            "type": "function"
        },
        {
            "inputs": [],
            "name": "claimSelfApeCoin",
            "outputs": [],
            "stateMutability": "nonpayable",
            "type": "function"
        },
        {
            "inputs": [
                {
                    "components": [
                        {
                            "internalType": "uint128",
                            "name": "mainTokenId",
                            "type": "uint128"
                        },
                        {
                            "internalType": "uint128",
                            "name": "bakcTokenId",
                            "type": "uint128"
                        }
                    ],
                    "internalType": "struct OptimizedApeCoinStaking.PairNft[]",
                    "name": "_baycPairs",
                    "type": "tuple[]"
                },
                {
                    "components": [
                        {
                            "internalType": "uint128",
                            "name": "mainTokenId",
                            "type": "uint128"
                        },
                        {
                            "internalType": "uint128",
                            "name": "bakcTokenId",
                            "type": "uint128"
                        }
                    ],
                    "internalType": "struct OptimizedApeCoinStaking.PairNft[]",
                    "name": "_maycPairs",
                    "type": "tuple[]"
                }
            ],
            "name": "claimSelfBAKC",
            "outputs": [],
            "stateMutability": "nonpayable",
            "type": "function"
        },
        {
            "inputs": [
                {
                    "internalType": "uint256[]",
                    "name": "_nfts",
                    "type": "uint256[]"
                }
            ],
            "name": "claimSelfBAYC",
            "outputs": [],
            "stateMutability": "nonpayable",
            "type": "function"
        },
        {
            "inputs": [
                {
                    "internalType": "uint256[]",
                    "name": "_nfts",
                    "type": "uint256[]"
                }
            ],
            "name": "claimSelfMAYC",
            "outputs": [],
            "stateMutability": "nonpayable",
            "type": "function"
        },
        {
            "inputs": [
                {
                    "internalType": "uint256",
                    "name": "_amount",
                    "type": "uint256"
                },
                {
                    "internalType": "address",
                    "name": "_recipient",
                    "type": "address"
                }
            ],
            "name": "depositApeCoin",
            "outputs": [],
            "stateMutability": "nonpayable",
            "type": "function"
        },
        {
            "inputs": [
                {
                    "components": [
                        {
                            "internalType": "uint32",
                            "name": "mainTokenId",
                            "type": "uint32"
                        },
                        {
                            "internalType": "uint32",
                            "name": "bakcTokenId",
                            "type": "uint32"
                        },
                        {
                            "internalType": "uint192",
                            "name": "amount",
                            "type": "uint192"
                        }
                    ],
                    "internalType": "struct OptimizedApeCoinStaking.PairNftWithAmount[]",
                    "name": "_baycPairs",
                    "type": "tuple[]"
                },
                {
                    "components": [
                        {
                            "internalType": "uint32",
                            "name": "mainTokenId",
                            "type": "uint32"
                        },
                        {
                            "internalType": "uint32",
                            "name": "bakcTokenId",
                            "type": "uint32"
                        },
                        {
                            "internalType": "uint192",
                            "name": "amount",
                            "type": "uint192"
                        }
                    ],
                    "internalType": "struct OptimizedApeCoinStaking.PairNftWithAmount[]",
                    "name": "_maycPairs",
                    "type": "tuple[]"
                }
            ],
            "name": "depositBAKC",
            "outputs": [],
            "stateMutability": "nonpayable",
            "type": "function"
        },
        {
            "inputs": [
                {
                    "components": [
                        {
                            "internalType": "uint32",
                            "name": "tokenId",
                            "type": "uint32"
                        },
                        {
                            "internalType": "uint224",
                            "name": "amount",
                            "type": "uint224"
                        }
                    ],
                    "internalType": "struct OptimizedApeCoinStaking.SingleNft[]",
                    "name": "_nfts",
                    "type": "tuple[]"
                }
            ],
            "name": "depositBAYC",
            "outputs": [],
            "stateMutability": "nonpayable",
            "type": "function"
        },
        {
            "inputs": [
                {
                    "components": [
                        {
                            "internalType": "uint32",
                            "name": "tokenId",
                            "type": "uint32"
                        },
                        {
                            "internalType": "uint224",
                            "name": "amount",
                            "type": "uint224"
                        }
                    ],
                    "internalType": "struct OptimizedApeCoinStaking.SingleNft[]",
                    "name": "_nfts",
                    "type": "tuple[]"
                }
            ],
            "name": "depositMAYC",
            "outputs": [],
            "stateMutability": "nonpayable",
            "type": "function"
        },
        {
            "inputs": [
                {
                    "internalType": "uint256",
                    "name": "_amount",
                    "type": "uint256"
                }
            ],
            "name": "depositSelfApeCoin",
            "outputs": [],
            "stateMutability": "nonpayable",
            "type": "function"
        },
        {
            "inputs": [
                {
                    "internalType": "address",
                    "name": "_recipient",
                    "type": "address"
                }
            ],
            "name": "getAddressPosition",
            "outputs": [
                {
                    "components": [
                        {
                            "internalType": "uint80",
                            "name": "stakedAmount",
                            "type": "uint80"
                        },
                        {
                            "internalType": "int176",
                            "name": "rewardsDebt",
                            "type": "int176"
                        }
                    ],
                    "internalType": "struct OptimizedApeCoinStaking.Position",
                    "name": "",
                    "type": "tuple"
                }
            ],
            "stateMutability": "view",
            "type": "function"
        },
        {
            "inputs": [
                {
                    "internalType": "address",
                    "name": "_address",
                    "type": "address"
                }
            ],
            "name": "getAllStakes",
            "outputs": [
                {
                    "components": [
                        {
                            "internalType": "uint256",
                            "name": "poolId",
                            "type": "uint256"
                        },
                        {
                            "internalType": "uint256",
                            "name": "tokenId",
                            "type": "uint256"
                        },
                        {
                            "internalType": "uint256",
                            "name": "deposited",
                            "type": "uint256"
                        },
                        {
                            "internalType": "uint256",
                            "name": "unclaimed",
                            "type": "uint256"
                        },
                        {
                            "internalType": "uint256",
                            "name": "rewards24hr",
                            "type": "uint256"
                        },
                        {
                            "components": [
                                {
                                    "internalType": "uint256",
                                    "name": "mainTokenId",
                                    "type": "uint256"
                                },
                                {
                                    "internalType": "uint256",
                                    "name": "mainTypePoolId",
                                    "type": "uint256"
                                }
                            ],
                            "internalType": "struct OptimizedApeCoinStaking.DashboardPair",
                            "name": "pair",
                            "type": "tuple"
                        }
                    ],
                    "internalType": "struct OptimizedApeCoinStaking.DashboardStake[]",
                    "name": "",
                    "type": "tuple[]"
                }
            ],
            "stateMutability": "view",
            "type": "function"
        },
        {
            "inputs": [
                {
                    "internalType": "address",
                    "name": "_address",
                    "type": "address"
                }
            ],
            "name": "getApeCoinStake",
            "outputs": [
                {
                    "components": [
                        {
                            "internalType": "uint256",
                            "name": "poolId",
                            "type": "uint256"
                        },
                        {
                            "internalType": "uint256",
                            "name": "tokenId",
                            "type": "uint256"
                        },
                        {
                            "internalType": "uint256",
                            "name": "deposited",
                            "type": "uint256"
                        },
                        {
                            "internalType": "uint256",
                            "name": "unclaimed",
                            "type": "uint256"
                        },
                        {
                            "internalType": "uint256",
                            "name": "rewards24hr",
                            "type": "uint256"
                        },
                        {
                            "components": [
                                {
                                    "internalType": "uint256",
                                    "name": "mainTokenId",
                                    "type": "uint256"
                                },
                                {
                                    "internalType": "uint256",
                                    "name": "mainTypePoolId",
                                    "type": "uint256"
                                }
                            ],
                            "internalType": "struct OptimizedApeCoinStaking.DashboardPair",
                            "name": "pair",
                            "type": "tuple"
                        }
                    ],
                    "internalType": "struct OptimizedApeCoinStaking.DashboardStake",
                    "name": "",
                    "type": "tuple"
                }
            ],
            "stateMutability": "view",
            "type": "function"
        },
        {
            "inputs": [
                {
                    "internalType": "address",
                    "name": "_address",
                    "type": "address"
                }
            ],
            "name": "getBakcStakes",
            "outputs": [
                {
                    "components": [
                        {
                            "internalType": "uint256",
                            "name": "poolId",
                            "type": "uint256"
                        },
                        {
                            "internalType": "uint256",
                            "name": "tokenId",
                            "type": "uint256"
                        },
                        {
                            "internalType": "uint256",
                            "name": "deposited",
                            "type": "uint256"
                        },
                        {
                            "internalType": "uint256",
                            "name": "unclaimed",
                            "type": "uint256"
                        },
                        {
                            "internalType": "uint256",
                            "name": "rewards24hr",
                            "type": "uint256"
                        },
                        {
                            "components": [
                                {
                                    "internalType": "uint256",
                                    "name": "mainTokenId",
                                    "type": "uint256"
                                },
                                {
                                    "internalType": "uint256",
                                    "name": "mainTypePoolId",
                                    "type": "uint256"
                                }
                            ],
                            "internalType": "struct OptimizedApeCoinStaking.DashboardPair",
                            "name": "pair",
                            "type": "tuple"
                        }
                    ],
                    "internalType": "struct OptimizedApeCoinStaking.DashboardStake[]",
                    "name": "",
                    "type": "tuple[]"
                }
            ],
            "stateMutability": "view",
            "type": "function"
        },
        {
            "inputs": [
                {
                    "internalType": "uint256",
                    "name": "_tokenId",
                    "type": "uint256"
                },
                {
                    "internalType": "uint256",
                    "name": "_poolId",
                    "type": "uint256"
                }
            ],
            "name": "getBakcToMain",
            "outputs": [
                {
                    "components": [
                        {
                            "internalType": "uint248",
                            "name": "tokenId",
                            "type": "uint248"
                        },
                        {
                            "internalType": "bool",
                            "name": "isPaired",
                            "type": "bool"
                        }
                    ],
                    "internalType": "struct OptimizedApeCoinStaking.PairingStatus",
                    "name": "",
                    "type": "tuple"
                }
            ],
            "stateMutability": "view",
            "type": "function"
        },
        {
            "inputs": [
                {
                    "internalType": "address",
                    "name": "_address",
                    "type": "address"
                }
            ],
            "name": "getBaycStakes",
            "outputs": [
                {
                    "components": [
                        {
                            "internalType": "uint256",
                            "name": "poolId",
                            "type": "uint256"
                        },
                        {
                            "internalType": "uint256",
                            "name": "tokenId",
                            "type": "uint256"
                        },
                        {
                            "internalType": "uint256",
                            "name": "deposited",
                            "type": "uint256"
                        },
                        {
                            "internalType": "uint256",
                            "name": "unclaimed",
                            "type": "uint256"
                        },
                        {
                            "internalType": "uint256",
                            "name": "rewards24hr",
                            "type": "uint256"
                        },
                        {
                            "components": [
                                {
                                    "internalType": "uint256",
                                    "name": "mainTokenId",
                                    "type": "uint256"
                                },
                                {
                                    "internalType": "uint256",
                                    "name": "mainTypePoolId",
                                    "type": "uint256"
                                }
                            ],
                            "internalType": "struct OptimizedApeCoinStaking.DashboardPair",
                            "name": "pair",
                            "type": "tuple"
                        }
                    ],
                    "internalType": "struct OptimizedApeCoinStaking.DashboardStake[]",
                    "name": "",
                    "type": "tuple[]"
                }
            ],
            "stateMutability": "view",
            "type": "function"
        },
        {
            "inputs": [
                {
                    "internalType": "uint256",
                    "name": "_poolId",
                    "type": "uint256"
                },
                {
                    "internalType": "uint256",
                    "name": "_tokenId",
                    "type": "uint256"
                }
            ],
            "name": "getMainToBakc",
            "outputs": [
                {
                    "components": [
                        {
                            "internalType": "uint248",
                            "name": "tokenId",
                            "type": "uint248"
                        },
                        {
                            "internalType": "bool",
                            "name": "isPaired",
                            "type": "bool"
                        }
                    ],
                    "internalType": "struct OptimizedApeCoinStaking.PairingStatus",
                    "name": "",
                    "type": "tuple"
                }
            ],
            "stateMutability": "view",
            "type": "function"
        },
        {
            "inputs": [
                {
                    "internalType": "address",
                    "name": "_address",
                    "type": "address"
                }
            ],
            "name": "getMaycStakes",
            "outputs": [
                {
                    "components": [
                        {
                            "internalType": "uint256",
                            "name": "poolId",
                            "type": "uint256"
                        },
                        {
                            "internalType": "uint256",
                            "name": "tokenId",
                            "type": "uint256"
                        },
                        {
                            "internalType": "uint256",
                            "name": "deposited",
                            "type": "uint256"
                        },
                        {
                            "internalType": "uint256",
                            "name": "unclaimed",
                            "type": "uint256"
                        },
                        {
                            "internalType": "uint256",
                            "name": "rewards24hr",
                            "type": "uint256"
                        },
                        {
                            "components": [
                                {
                                    "internalType": "uint256",
                                    "name": "mainTokenId",
                                    "type": "uint256"
                                },
                                {
                                    "internalType": "uint256",
                                    "name": "mainTypePoolId",
                                    "type": "uint256"
                                }
                            ],
                            "internalType": "struct OptimizedApeCoinStaking.DashboardPair",
                            "name": "pair",
                            "type": "tuple"
                        }
                    ],
                    "internalType": "struct OptimizedApeCoinStaking.DashboardStake[]",
                    "name": "",
                    "type": "tuple[]"
                }
            ],
            "stateMutability": "view",
            "type": "function"
        },
        {
            "inputs": [
                {
                    "internalType": "uint256",
                    "name": "_poolId",
                    "type": "uint256"
                },
                {
                    "internalType": "uint256",
                    "name": "_tokenId",
                    "type": "uint256"
                }
            ],
            "name": "getNftPosition",
            "outputs": [
                {
                    "components": [
                        {
                            "internalType": "uint80",
                            "name": "stakedAmount",
                            "type": "uint80"
                        },
                        {
                            "internalType": "int176",
                            "name": "rewardsDebt",
                            "type": "int176"
                        }
                    ],
                    "internalType": "struct OptimizedApeCoinStaking.Position",
                    "name": "",
                    "type": "tuple"
                }
            ],
            "stateMutability": "view",
            "type": "function"
        },
        {
            "inputs": [],
            "name": "getPoolsUI",
            "outputs": [
                {
                    "components": [
                        {
                            "internalType": "uint256",
                            "name": "poolId",
                            "type": "uint256"
                        },
                        {
                            "internalType": "uint256",
                            "name": "stakedAmount",
                            "type": "uint256"
                        },
                        {
                            "components": [
                                {
                                    "internalType": "uint48",
                                    "name": "startTimestampHour",
                                    "type": "uint48"
                                },
                                {
                                    "internalType": "uint48",
                                    "name": "endTimestampHour",
                                    "type": "uint48"
                                },
                                {
                                    "internalType": "uint80",
                                    "name": "rewardsPerHour",
                                    "type": "uint80"
                                },
                                {
                                    "internalType": "uint80",
                                    "name": "capPerPosition",
                                    "type": "uint80"
                                }
                            ],
                            "internalType": "struct OptimizedApeCoinStaking.TimeRange",
                            "name": "currentTimeRange",
                            "type": "tuple"
                        }
                    ],
                    "internalType": "struct OptimizedApeCoinStaking.PoolUI",
                    "name": "",
                    "type": "tuple"
                },
                {
                    "components": [
                        {
                            "internalType": "uint256",
                            "name": "poolId",
                            "type": "uint256"
                        },
                        {
                            "internalType": "uint256",
                            "name": "stakedAmount",
                            "type": "uint256"
                        },
                        {
                            "components": [
                                {
                                    "internalType": "uint48",
                                    "name": "startTimestampHour",
                                    "type": "uint48"
                                },
                                {
                                    "internalType": "uint48",
                                    "name": "endTimestampHour",
                                    "type": "uint48"
                                },
                                {
                                    "internalType": "uint80",
                                    "name": "rewardsPerHour",
                                    "type": "uint80"
                                },
                                {
                                    "internalType": "uint80",
                                    "name": "capPerPosition",
                                    "type": "uint80"
                                }
                            ],
                            "internalType": "struct OptimizedApeCoinStaking.TimeRange",
                            "name": "currentTimeRange",
                            "type": "tuple"
                        }
                    ],
                    "internalType": "struct OptimizedApeCoinStaking.PoolUI",
                    "name": "",
                    "type": "tuple"
                },
                {
                    "components": [
                        {
                            "internalType": "uint256",
                            "name": "poolId",
                            "type": "uint256"
                        },
                        {
                            "internalType": "uint256",
                            "name": "stakedAmount",
                            "type": "uint256"
                        },
                        {
                            "components": [
                                {
                                    "internalType": "uint48",
                                    "name": "startTimestampHour",
                                    "type": "uint48"
                                },
                                {
                                    "internalType": "uint48",
                                    "name": "endTimestampHour",
                                    "type": "uint48"
                                },
                                {
                                    "internalType": "uint80",
                                    "name": "rewardsPerHour",
                                    "type": "uint80"
                                },
                                {
                                    "internalType": "uint80",
                                    "name": "capPerPosition",
                                    "type": "uint80"
                                }
                            ],
                            "internalType": "struct OptimizedApeCoinStaking.TimeRange",
                            "name": "currentTimeRange",
                            "type": "tuple"
                        }
                    ],
                    "internalType": "struct OptimizedApeCoinStaking.PoolUI",
                    "name": "",
                    "type": "tuple"
                },
                {
                    "components": [
                        {
                            "internalType": "uint256",
                            "name": "poolId",
                            "type": "uint256"
                        },
                        {
                            "internalType": "uint256",
                            "name": "stakedAmount",
                            "type": "uint256"
                        },
                        {
                            "components": [
                                {
                                    "internalType": "uint48",
                                    "name": "startTimestampHour",
                                    "type": "uint48"
                                },
                                {
                                    "internalType": "uint48",
                                    "name": "endTimestampHour",
                                    "type": "uint48"
                                },
                                {
                                    "internalType": "uint80",
                                    "name": "rewardsPerHour",
                                    "type": "uint80"
                                },
                                {
                                    "internalType": "uint80",
                                    "name": "capPerPosition",
                                    "type": "uint80"
                                }
                            ],
                            "internalType": "struct OptimizedApeCoinStaking.TimeRange",
                            "name": "currentTimeRange",
                            "type": "tuple"
                        }
                    ],
                    "internalType": "struct OptimizedApeCoinStaking.PoolUI",
                    "name": "",
                    "type": "tuple"
                }
            ],
            "stateMutability": "view",
            "type": "function"
        },
        {
            "inputs": [
                {
                    "internalType": "address",
                    "name": "_address",
                    "type": "address"
                }
            ],
            "name": "getSplitStakes",
            "outputs": [
                {
                    "components": [
                        {
                            "internalType": "uint256",
                            "name": "poolId",
                            "type": "uint256"
                        },
                        {
                            "internalType": "uint256",
                            "name": "tokenId",
                            "type": "uint256"
                        },
                        {
                            "internalType": "uint256",
                            "name": "deposited",
                            "type": "uint256"
                        },
                        {
                            "internalType": "uint256",
                            "name": "unclaimed",
                            "type": "uint256"
                        },
                        {
                            "internalType": "uint256",
                            "name": "rewards24hr",
                            "type": "uint256"
                        },
                        {
                            "components": [
                                {
                                    "internalType": "uint256",
                                    "name": "mainTokenId",
                                    "type": "uint256"
                                },
                                {
                                    "internalType": "uint256",
                                    "name": "mainTypePoolId",
                                    "type": "uint256"
                                }
                            ],
                            "internalType": "struct OptimizedApeCoinStaking.DashboardPair",
                            "name": "pair",
                            "type": "tuple"
                        }
                    ],
                    "internalType": "struct OptimizedApeCoinStaking.DashboardStake[]",
                    "name": "",
                    "type": "tuple[]"
                }
            ],
            "stateMutability": "view",
            "type": "function"
        },
        {
            "inputs": [
                {
                    "internalType": "uint256",
                    "name": "_poolId",
                    "type": "uint256"
                },
                {
                    "internalType": "uint256",
                    "name": "_index",
                    "type": "uint256"
                }
            ],
            "name": "getTimeRangeBy",
            "outputs": [
                {
                    "components": [
                        {
                            "internalType": "uint48",
                            "name": "startTimestampHour",
                            "type": "uint48"
                        },
                        {
                            "internalType": "uint48",
                            "name": "endTimestampHour",
                            "type": "uint48"
                        },
                        {
                            "internalType": "uint80",
                            "name": "rewardsPerHour",
                            "type": "uint80"
                        },
                        {
                            "internalType": "uint80",
                            "name": "capPerPosition",
                            "type": "uint80"
                        }
                    ],
                    "internalType": "struct OptimizedApeCoinStaking.TimeRange",
                    "name": "",
                    "type": "tuple"
                }
            ],
            "stateMutability": "view",
            "type": "function"
        },
        {
            "inputs": [],
            "name": "owner",
            "outputs": [
                {
                    "internalType": "address",
                    "name": "",
                    "type": "address"
                }
            ],
            "stateMutability": "view",
            "type": "function"
        },
        {
            "inputs": [
                {
                    "internalType": "uint256",
                    "name": "_poolId",
                    "type": "uint256"
                },
                {
                    "internalType": "address",
                    "name": "_address",
                    "type": "address"
                },
                {
                    "internalType": "uint256",
                    "name": "_tokenId",
                    "type": "uint256"
                }
            ],
            "name": "pendingRewards",
            "outputs": [
                {
                    "internalType": "uint256",
                    "name": "",
                    "type": "uint256"
                }
            ],
            "stateMutability": "view",
            "type": "function"
        },
        {
            "inputs": [
                {
                    "internalType": "uint256",
                    "name": "_poolId",
                    "type": "uint256"
                }
            ],
            "name": "removeLastTimeRange",
            "outputs": [],
            "stateMutability": "nonpayable",
            "type": "function"
        },
        {
            "inputs": [],
            "name": "renounceOwnership",
            "outputs": [],
            "stateMutability": "nonpayable",
            "type": "function"
        },
        {
            "inputs": [
                {
                    "internalType": "uint256",
                    "name": "_poolId",
                    "type": "uint256"
                },
                {
                    "internalType": "uint256",
                    "name": "_from",
                    "type": "uint256"
                },
                {
                    "internalType": "uint256",
                    "name": "_to",
                    "type": "uint256"
                }
            ],
            "name": "rewardsBy",
            "outputs": [
                {
                    "internalType": "uint256",
                    "name": "",
                    "type": "uint256"
                },
                {
                    "internalType": "uint256",
                    "name": "",
                    "type": "uint256"
                }
            ],
            "stateMutability": "view",
            "type": "function"
        },
        {
            "inputs": [
                {
                    "internalType": "address",
                    "name": "_address",
                    "type": "address"
                }
            ],
            "name": "stakedTotal",
            "outputs": [
                {
                    "internalType": "uint256",
                    "name": "",
                    "type": "uint256"
                }
            ],
            "stateMutability": "view",
            "type": "function"
        },
        {
            "inputs": [
                {
                    "internalType": "address",
                    "name": "newOwner",
                    "type": "address"
                }
            ],
            "name": "transferOwnership",
            "outputs": [],
            "stateMutability": "nonpayable",
            "type": "function"
        },
        {
            "inputs": [
                {
                    "internalType": "uint256",
                    "name": "_amount",
                    "type": "uint256"
                },
                {
                    "internalType": "address",
                    "name": "_recipient",
                    "type": "address"
                }
            ],
            "name": "withdrawApeCoin",
            "outputs": [],
            "stateMutability": "nonpayable",
            "type": "function"
        },
        {
            "inputs": [
                {
                    "components": [
                        {
                            "internalType": "uint32",
                            "name": "mainTokenId",
                            "type": "uint32"
                        },
                        {
                            "internalType": "uint32",
                            "name": "bakcTokenId",
                            "type": "uint32"
                        },
                        {
                            "internalType": "uint192",
                            "name": "amount",
                            "type": "uint192"
                        }
                    ],
                    "internalType": "struct OptimizedApeCoinStaking.PairNftWithAmount[]",
                    "name": "_baycPairs",
                    "type": "tuple[]"
                },
                {
                    "components": [
                        {
                            "internalType": "uint32",
                            "name": "mainTokenId",
                            "type": "uint32"
                        },
                        {
                            "internalType": "uint32",
                            "name": "bakcTokenId",
                            "type": "uint32"
                        },
                        {
                            "internalType": "uint192",
                            "name": "amount",
                            "type": "uint192"
                        }
                    ],
                    "internalType": "struct OptimizedApeCoinStaking.PairNftWithAmount[]",
                    "name": "_maycPairs",
                    "type": "tuple[]"
                }
            ],
            "name": "withdrawBAKC",
            "outputs": [],
            "stateMutability": "nonpayable",
            "type": "function"
        },
        {
            "inputs": [
                {
                    "components": [
                        {
                            "internalType": "uint32",
                            "name": "tokenId",
                            "type": "uint32"
                        },
                        {
                            "internalType": "uint224",
                            "name": "amount",
                            "type": "uint224"
                        }
                    ],
                    "internalType": "struct OptimizedApeCoinStaking.SingleNft[]",
                    "name": "_nfts",
                    "type": "tuple[]"
                },
                {
                    "internalType": "address",
                    "name": "_recipient",
                    "type": "address"
                }
            ],
            "name": "withdrawBAYC",
            "outputs": [],
            "stateMutability": "nonpayable",
            "type": "function"
        },
        {
            "inputs": [
                {
                    "components": [
                        {
                            "internalType": "uint32",
                            "name": "tokenId",
                            "type": "uint32"
                        },
                        {
                            "internalType": "uint224",
                            "name": "amount",
                            "type": "uint224"
                        }
                    ],
                    "internalType": "struct OptimizedApeCoinStaking.SingleNft[]",
                    "name": "_nfts",
                    "type": "tuple[]"
                },
                {
                    "internalType": "address",
                    "name": "_recipient",
                    "type": "address"
                }
            ],
            "name": "withdrawMAYC",
            "outputs": [],
            "stateMutability": "nonpayable",
            "type": "function"
        },
        {
            "inputs": [
                {
                    "internalType": "uint256",
                    "name": "_amount",
                    "type": "uint256"
                }
            ],
            "name": "withdrawSelfApeCoin",
            "outputs": [],
            "stateMutability": "nonpayable",
            "type": "function"
        },
        {
            "inputs": [
                {
                    "components": [
                        {
                            "internalType": "uint32",
                            "name": "tokenId",
                            "type": "uint32"
                        },
                        {
                            "internalType": "uint224",
                            "name": "amount",
                            "type": "uint224"
                        }
                    ],
                    "internalType": "struct OptimizedApeCoinStaking.SingleNft[]",
                    "name": "_nfts",
                    "type": "tuple[]"
                }
            ],
            "name": "withdrawSelfBAYC",
            "outputs": [],
            "stateMutability": "nonpayable",
            "type": "function"
        },
        {
            "inputs": [
                {
                    "components": [
                        {
                            "internalType": "uint32",
                            "name": "tokenId",
                            "type": "uint32"
                        },
                        {
                            "internalType": "uint224",
                            "name": "amount",
                            "type": "uint224"
                        }
                    ],
                    "internalType": "struct OptimizedApeCoinStaking.SingleNft[]",
                    "name": "_nfts",
                    "type": "tuple[]"
                }
            ],
            "name": "withdrawSelfMAYC",
            "outputs": [],
            "stateMutability": "nonpayable",
            "type": "function"
        }
    ],
    "bytecode": "60a06040523480156200001157600080fd5b5060405162005c3438038062005c3483398101604081905262000034916200015b565b6200003f33620000ee565b6001600160a01b03938416608052600a6020527fbbc70db1b6c7afd11e79c0fb0051300458f1a3acb8ee9789d9b6b26c61ad9bc780549385166001600160a01b03199485161790557fbff4442b8ed600beeb8e26b1279a0f0d14c6edfaec26d968ee13c86f7d4c2ba880549285169284169290921790915560036000527fa856840544dc26124927add067d799967eac11be13e14d82cc281ea46fa397598054919093169116179055620001b8565b600080546001600160a01b038381166001600160a01b0319831681178455604051919092169283917f8be0079c531659141344cd1fd0a4f28419497f9722a3daafe3b4186f6b6457e09190a35050565b80516001600160a01b03811681146200015657600080fd5b919050565b600080600080608085870312156200017257600080fd5b6200017d856200013e565b93506200018d602086016200013e565b92506200019d604086016200013e565b9150620001ad606086016200013e565b905092959194509250565b608051615a36620001fe600039600081816118d401528181611df3015281816132360152818161348201528181613b1301528181613dcc015261444b0152615a366000f3fe608060405234801561001057600080fd5b50600436106102475760003560e01c8063aa239f521161013b578063d7464ee9116100b8578063ed23c9061161007c578063ed23c906146106b4578063f2fde38b146106c7578063f4c6f602146106da578063f5679189146106ed578063fe31446c1461070057600080fd5b8063d7464ee9146105e6578063d9f11fb21461060e578063dbe0c97b1461062e578063e0347e4f1461068e578063e4e81847146106a157600080fd5b8063bd5023a9116100ff578063bd5023a91461053c578063c5a029001461054f578063c63389c3146105ad578063c9006616146105c0578063d363dc17146105d357600080fd5b8063aa239f521461046a578063aceb36291461047d578063ad16ae2114610490578063b682e85914610516578063bb628f201461052957600080fd5b806346583a05116101c95780638279e7601161018d5780638279e7601461040e5780638da5cb5b146104165780638ecbffa7146104315780639860037e146104445780639dcaafb41461045757600080fd5b806346583a05146103b557806357a26300146103c8578063715018a6146103db578063770dade5146103e35780637f60d338146103fb57600080fd5b806320a325d01161021057806320a325d0146102d0578063280698db146102e35780632c018f911461036e5780632ee2de661461038f578063381b4682146103a257600080fd5b8062191b441461024c578063042389941461027557806307f5fa4a1461028857806309e833c61461029d5780630ed368f1146102bd575b600080fd5b61025f61025a366004614f78565b610713565b60405161026c9190614fdc565b60405180910390f35b61025f610283366004614f78565b610726565b61029b610296366004615075565b6109ae565b005b6102b06102ab3660046150f8565b6109d9565b60405161026c919061515b565b61025f6102cb366004614f78565b610a8b565b61029b6102de3660046151ad565b610d70565b6103476102f1366004614f78565b6040805180820190915260008082526020820152506001600160a01b03166000908152600960209081526040918290208251808401909352546001600160501b0381168352600160501b900460150b9082015290565b6040805182516001600160501b0316815260209283015160150b928101929092520161026c565b61038161037c3660046151ee565b610d81565b60405190815260200161026c565b61029b61039d366004614f78565b610fe5565b61029b6103b03660046151ad565b611056565b61029b6103c3366004615226565b611063565b61029b6103d636600461525b565b61106f565b61029b611081565b6103eb611095565b60405161026c94939291906152d1565b61029b610409366004615312565b6115a0565b61029b6115ad565b6000546040516001600160a01b03909116815260200161026c565b61029b61043f366004615226565b6115b6565b61025f610452366004614f78565b6115c2565b61029b610465366004615312565b6115cf565b61029b61047836600461536f565b6115d9565b61029b61048b3660046153da565b611601565b6104f061049e3660046150f8565b60408051808201825260008082526020918201819052938452600c8152818420928452918252918290208251808401909352546001600160f81b0381168352600160f81b900460ff1615159082015290565b6040805182516001600160f81b031681526020928301511515928101929092520161026c565b61029b61052436600461525b565b61160e565b61029b610537366004615411565b61161b565b61029b61054a36600461544c565b611852565b61034761055d3660046150f8565b60408051808201825260008082526020918201819052938452600b8152818420928452918252918290208251808401909352546001600160501b0381168352600160501b900460150b9082015290565b61029b6105bb366004615226565b61198a565b61029b6105ce36600461536f565b611997565b61029b6105e1366004615312565b6119b9565b6105f96105f436600461547c565b611a05565b6040805192835260208301919091520161026c565b61062161061c366004614f78565b611bff565b60405161026c91906154a8565b6104f061063c3660046150f8565b60408051808201825260008082526020918201819052938452600d8152818420928452918252918290208251808401909352546001600160f81b0381168352600160f81b900460ff1615159082015290565b61029b61069c3660046154b6565b611d1c565b61029b6106af36600461544c565b611d40565b61029b6106c23660046153da565b611ea1565b61029b6106d5366004614f78565b611eae565b61025f6106e8366004614f78565b611f29565b6103816106fb366004614f78565b611f36565b61029b61070e366004615226565b611fa0565b6060610720826003611fad565b92915050565b6060600061073383611bff565b90506000610740846115c2565b9050600061074d85611f29565b9050600061075a86610713565b9050600061076787610a8b565b90506000815183518551875161077d919061552b565b610787919061552b565b610791919061552b565b61079c90600161552b565b90506000816001600160401b038111156107b8576107b8615543565b6040519080825280602002602001820160405280156107f157816020015b6107de614ed0565b8152602001906001900390816107d65790505b50905060008782828151811061080957610809615559565b60200260200101819052508061081e9061556f565b905060005b875181101561087f5787818151811061083e5761083e615559565b602002602001015183838151811061085857610858615559565b60200260200101819052508161086d9061556f565b91506108788161556f565b9050610823565b5060005b86518110156108df5786818151811061089e5761089e615559565b60200260200101518383815181106108b8576108b8615559565b6020026020010181905250816108cd9061556f565b91506108d88161556f565b9050610883565b5060005b855181101561093f578581815181106108fe576108fe615559565b602002602001015183838151811061091857610918615559565b60200260200101819052508161092d9061556f565b91506109388161556f565b90506108e3565b5060005b845181101561099f5784818151811061095e5761095e615559565b602002602001015183838151811061097857610978615559565b60200260200101819052508161098d9061556f565b91506109988161556f565b9050610943565b50909998505050505050505050565b6109b86003612381565b6109c560018686846125f0565b6109d260028484846125f0565b5050505050565b60408051608081018252600080825260208201819052918101829052606081019190915260018360048110610a1057610a10615559565b600202016001018281548110610a2857610a28615559565b600091825260209182902060408051608081018252919092015465ffffffffffff8082168352600160301b820416938201939093526001600160501b03600160601b8404811692820192909252600160b01b909204166060820152905092915050565b60016000908152600a6020527fbbc70db1b6c7afd11e79c0fb0051300458f1a3acb8ee9789d9b6b26c61ad9bc7546040516370a0823160e01b81526001600160a01b03848116600483015260609392610b33929116906370a0823190602401602060405180830381865afa158015610b07573d6000803e3d6000fd5b505050506040513d601f19601f82011682018060405250810190610b2b919061558a565b84600161296a565b60026000908152600a6020527fbff4442b8ed600beeb8e26b1279a0f0d14c6edfaec26d968ee13c86f7d4c2ba8546040516370a0823160e01b81526001600160a01b0387811660048301529394509192610bdc929116906370a0823190602401602060405180830381865afa158015610bb0573d6000803e3d6000fd5b505050506040513d601f19601f82011682018060405250810190610bd4919061558a565b85600261296a565b90506000610bea828461552b565b905080610c2c576040805160008082526020820190925290610c22565b610c0f614ed0565b815260200190600190039081610c075790505b5095945050505050565b6000610c3a84876001612b09565b90506000610c4a84886002612b09565b90506000836001600160401b03811115610c6657610c66615543565b604051908082528060200260200182016040528015610c9f57816020015b610c8c614ed0565b815260200190600190039081610c845790505b5090506000805b8451811015610d0257848181518110610cc157610cc1615559565b6020026020010151838381518110610cdb57610cdb615559565b602002602001018190525081610cf09061556f565b9150610cfb8161556f565b9050610ca6565b5060005b8351811015610d6257838181518110610d2157610d21615559565b6020026020010151838381518110610d3b57610d3b615559565b602002602001018190525081610d509061556f565b9150610d5b8161556f565b9050610d06565b509098975050505050505050565b610d7d6001838333612f1b565b5050565b60008060018560048110610d9757610d97615559565b6040805160a08101825260029290920292909201805465ffffffffffff8116835261ffff600160301b8204166020808501919091526001600160601b03600160401b8304811685870152600160a01b90920490911660608401526001820180548551818402810184019096528086529394929360808601939260009084015b82821015610e82576000848152602090819020604080516080810182529185015465ffffffffffff8082168452600160301b820416838501526001600160501b03600160601b8204811692840192909252600160b01b9004166060820152825260019092019101610e16565b505050508152505090506000808614610eb3576000868152600b602090815260408083208784529091529020610ecc565b6001600160a01b03851660009081526009602052604090205b6040805180820190915290546001600160501b0381168252600160501b900460150b60208201528251909150600090610f1190889065ffffffffffff166105f4613068565b50606084015184519192506001600160601b031690610f3290610e106155a3565b65ffffffffffff16421115610f8b5760408401516001600160601b031615610f8b5760408401516001600160601b0316610f74670de0b6b3a7640000846155cd565b610f7e9190615602565b610f88908261552b565b90505b670de0b6b3a7640000610fcf846020015160150b610fc08487600001516001600160501b0316610fbb91906155cd565b6130a0565b610fca9190615616565b61310e565b610fd99190615602565b98975050505050505050565b610fef6000612381565b3360009081526009602052604081209061100a818385613160565b604080518281526001600160a01b038616602082015291925033917f030f754a3e747235920c21afeca14e881b260d41c7e657ada6c0b049f7eebca991015b60405180910390a2505050565b610d7d6002838333612f1b565b610d7d600183836132ae565b61107c6002848484612f1b565b505050565b611089613501565b611093600061355b565b565b61109d614f20565b6110a5614f20565b6110ad614f20565b6110b5614f20565b6040805160a0810182526001805465ffffffffffff8116835261ffff600160301b8204166020808501919091526001600160601b03600160401b8304811685870152600160a01b909204909116606084015260028054855181840281018401909652808652600095608086019390929190879084015b82821015611197576000848152602090819020604080516080810182529185015465ffffffffffff8082168452600160301b820416838501526001600160501b03600160601b8204811692840192909252600160b01b900416606082015282526001909201910161112b565b505050915250506040805160a0810182526003805465ffffffffffff8116835261ffff600160301b8204166020808501919091526001600160601b03600160401b8304811685870152600160a01b90920490911660608401526004805485518184028101840190965280865295965060009593949293608086019392879084015b82821015611284576000848152602090819020604080516080810182529185015465ffffffffffff8082168452600160301b820416838501526001600160501b03600160601b8204811692840192909252600160b01b9004166060820152825260019092019101611218565b505050915250506040805160a0810182526005805465ffffffffffff8116835261ffff600160301b8204166020808501919091526001600160601b03600160401b8304811685870152600160a01b90920490911660608401526006805485518184028101840190965280865295965060009593949293608086019392879084015b82821015611371576000848152602090819020604080516080810182529185015465ffffffffffff8082168452600160301b820416838501526001600160501b03600160601b8204811692840192909252600160b01b9004166060820152825260019092019101611305565b505050915250506040805160a0810182526007805465ffffffffffff8116835261ffff600160301b8204166020808501919091526001600160601b03600160401b8304811685870152600160a01b90920490911660608401526008805485518184028101840190965280865295965060009593949293608086019392879084015b8282101561145e576000848152602090819020604080516080810182529185015465ffffffffffff8082168452600160301b820416838501526001600160501b03600160601b8204811692840192909252600160b01b90041660608201528252600190920191016113f2565b505050508152505090506000611473856135ab565b905060405180606001604052806000815260200186604001516001600160601b03168152602001866080015183815181106114b0576114b0615559565b602002602001015181525060405180606001604052806001815260200186604001516001600160601b03168152602001866080015184815181106114f6576114f6615559565b602002602001015181525060405180606001604052806002815260200186604001516001600160601b031681526020018660800151858151811061153c5761153c615559565b602002602001015181525060405180606001604052806003815260200186604001516001600160601b031681526020018660800151868151811061158257611582615559565b60200260200101518152509850985098509850505050505090919293565b6115aa8133611d40565b50565b61109333610fe5565b610d7d600283836132ae565b6060610720826001611fad565b6115aa8133611852565b6115e36003612381565b6115ef600185856136c1565b6115fb600283836136c1565b50505050565b61107c6001848484613b91565b61107c6001848484612f1b565b611623613501565b60038511156116455760405163015f4fdd60e31b815260040160405180910390fd5b81831061166557604051633bac84d760e11b815260040160405180910390fd5b600061167084613e45565b11806116845750600061168284613e61565b115b156116a25760405163f7985df160e01b815260040160405180910390fd5b60006116ad83613e45565b11806116c1575060006116bf83613e61565b115b156116df57604051638b853e2560e01b815260040160405180910390fd5b6000600186600481106116f4576116f4615559565b600202019050600081600101805490509050600081111561176a57816001016001826117209190615655565b8154811061173057611730615559565b600091825260209091200154600160301b900465ffffffffffff16851461176a57604051639424dcd960e01b815260040160405180910390fd5b60006117768686615655565b905060008161178789610e106155cd565b6117919190615602565b6040805160808101825265ffffffffffff998a1681529789166020808a019182526001600160501b03938416928a0192835297831660608a0190815260019788018054988901815560009081529890982098519890960180549651915197518316600160b01b026001600160b01b0398909316600160601b02979097166001600160601b03918a16600160301b026bffffffffffffffffffffffff199097169890991697909717949094179590951695909517919091179091555050505050565b611865670de0b6b3a764000060016155cd565b8210156118845760405162a1ceb560e71b815260040160405180910390fd5b61188e6000612381565b6001600160a01b0381166000908152600960205260408120906118b2908285613e6e565b6040516323b872dd60e01b8152336004820152306024820152604481018490527f00000000000000000000000000000000000000000000000000000000000000006001600160a01b0316906323b872dd906064016020604051808303816000875af1158015611925573d6000803e3d6000fd5b505050506040513d601f19601f82011682018060405250810190611949919061566c565b50604080518481526001600160a01b038416602082015233917fe31c7b8d08ee7db0afa68782e1028ef92305caeea8626633ad44d413e30f6b2f9101611049565b610d7d6002838333613b91565b6119a16003612381565b6119ad60018585613f8a565b6115fb60028383613f8a565b6119c1613501565b600181600481106119d4576119d4615559565b600202016001018054806119ea576119ea61568e565b60008281526020812082016000199081019190915501905550565b600080600060018660048110611a1d57611a1d615559565b600202018054600182018054929350600160301b90910461ffff1691600090611a4857611a48615559565b60009182526020909120015465ffffffffffff16851015611a7057600093509150611bf79050565b6000806000805b856001018581548110611a8c57611a8c615559565b600091825260209091200154600160301b900465ffffffffffff168a118015611ae35750856001018581548110611ac557611ac5615559565b600091825260209091200154600160301b900465ffffffffffff1689115b15611af357846001019450611a77565b6001860154855b81811015611bde57876001018181548110611b1757611b17615559565b6000918252602090912001805490965065ffffffffffff168c1115611b3c578b611b47565b855465ffffffffffff165b8654909450600160301b900465ffffffffffff168b1115611b78578554600160301b900465ffffffffffff16611b7a565b8a5b8654909350610e1090600160601b90046001600160501b0316611b9d8686615655565b611ba791906155cd565b611bb19190615602565b611bbb908661552b565b9450828b11611bd657939850929650611bf795505050505050565b600101611afa565b5083611beb600183615655565b98509850505050505050505b935093915050565b611c07614ed0565b6001600160a01b0382166000908152600960205260408120546001600160501b03168181611c36576000611cac565b604051632c018f9160e01b8152600060048201526001600160a01b0386166024820152604481018490523090632c018f9190606401602060405180830381865afa158015611c88573d6000803e3d6000fd5b505050506040513d601f19601f82011682018060405250810190611cac919061558a565b90506000808311611cbe576000611ccb565b611ccb6000876000614527565b90506040518060c00160405280600081526020018581526020018481526020018381526020018281526020016040518060400160405280600081526020016000815250815250945050505050919050565b611d266003612381565b611d3360018585336125f0565b6115fb60028383336125f0565b611d4a6000612381565b33600090815260096020526040902080546001600160501b0316831415611dc1576000611d7960008385613160565b604080518281526001600160a01b038616602082015291925033917f030f754a3e747235920c21afeca14e881b260d41c7e657ada6c0b049f7eebca9910160405180910390a2505b611dcd60008285614702565b60405163a9059cbb60e01b81526001600160a01b038381166004830152602482018590527f0000000000000000000000000000000000000000000000000000000000000000169063a9059cbb906044016020604051808303816000875af1158015611e3c573d6000803e3d6000fd5b505050506040513d601f19601f82011682018060405250810190611e60919061566c565b50604080518481526001600160a01b038416602082015233917f56c54ba9bd38d8fd62012e42c7ee564519b09763c426d331b3661b537ead19b29101611049565b61107c6002848484613b91565b611eb6613501565b6001600160a01b038116611f205760405162461bcd60e51b815260206004820152602660248201527f4f776e61626c653a206e6577206f776e657220697320746865207a65726f206160448201526564647265737360d01b60648201526084015b60405180910390fd5b6115aa8161355b565b6060610720826002611fad565b6001600160a01b0381166000908152600960205260408120546001600160501b0316611f63600184614816565b611f6d908261552b565b9050611f7a600284614816565b611f84908261552b565b9050611f8f8361496d565b611f99908261552b565b9392505050565b610d7d6001838333613b91565b6000818152600a60205260408082205490516370a0823160e01b81526001600160a01b0385811660048301526060939216906370a0823190602401602060405180830381865afa158015612005573d6000803e3d6000fd5b505050506040513d601f19601f82011682018060405250810190612029919061558a565b9050600080821161206b576040805160008082526020820190925290612065565b612052614ed0565b81526020019060019003908161204a5790505b506120be565b816001600160401b0381111561208357612083615543565b6040519080825280602002602001820160405280156120bc57816020015b6120a9614ed0565b8152602001906001900390816120a15790505b505b9050816120ce5791506107209050565b60005b82811015612378576000858152600a6020526040808220549051632f745c5960e01b81526001600160a01b0389811660048301526024820185905290911690632f745c5990604401602060405180830381865afa158015612136573d6000803e3d6000fd5b505050506040513d601f19601f8201168201806040525081019061215a919061558a565b6000878152600b602090815260408083208484529091528120549192506001600160501b03909116908161218f576000612205565b604051632c018f9160e01b8152600481018990526001600160a01b038a166024820152604481018490523090632c018f9190606401602060405180830381865afa1580156121e1573d6000803e3d6000fd5b505050506040513d601f19601f82011682018060405250810190612205919061558a565b90506000808311612217576000612222565b612222898b86614527565b9050612241604051806040016040528060008152602001600081525090565b60038a1415612312576000858152600d6020908152604080832060018452909152902054600160f81b900460ff16156122b057506040805180820182526000868152600d6020908152838220600180845290825293909120546001600160f81b03168252810191909152612312565b6000858152600d6020908152604080832060028452909152902054600160f81b900460ff161561231257506040805180820182526000868152600d6020908152838220600280845290825293909120546001600160f81b031682528101919091525b60006040518060c001604052808c81526020018781526020018681526020018581526020018481526020018381525090508088888151811061235657612356615559565b6020026020010181905250505050505050806123719061556f565b90506120d1565b50949350505050565b60006001826004811061239657612396615559565b600202019050806001016000815481106123b2576123b2615559565b60009182526020909120015465ffffffffffff164210806123f0575080546123e49065ffffffffffff16610e106155a3565b65ffffffffffff164211155b156123f9575050565b6001808201805460009261240c91615655565b8154811061241c5761241c615559565b6000918252602082200154600160301b900465ffffffffffff169150612440613068565b8354909150600160401b90046001600160601b0316612497578165ffffffffffff168165ffffffffffff16116124765780612478565b815b835465ffffffffffff191665ffffffffffff9190911617909255505050565b825460009081906124b690879065ffffffffffff908116908616611a05565b86549193509150600160301b900461ffff1681146124ea57845467ffff0000000000001916600160301b61ffff8316021785555b8454600160401b90046001600160601b031661250e670de0b6b3a7640000846155cd565b6125189190615602565b85546125349190600160a01b90046001600160601b031661552b565b85546001600160601b0391909116600160a01b026001600160a01b0390911617855565ffffffffffff8085169084161161256e5782612570565b835b855465ffffffffffff191665ffffffffffff9190911690811780875560408051928352600160401b82046001600160601b039081166020850152600160a01b9092049091169082015286907f3be3541fc42237d611b30329040bfa4569541d156560acdbbae57640d20b8f469060600160405180910390a2505050505050565b6040805180820190915260008082526020820152600083818080805b8481101561295d5789898281811061262657612626615559565b90506040020180360381019061263c91906156c0565b60008c8152600a60205260409081902054825191516331a9108f60e11b81526001600160801b03909216600483015291985033916001600160a01b031690636352211e90602401602060405180830381865afa1580156126a0573d6000803e3d6000fd5b505050506040513d601f19601f820116820180604052508101906126c49190615728565b6001600160a01b0316146126eb57604051632b19ae7560e01b815260040160405180910390fd5b6003600052600a60209081526000805160206159c183398151915254908801516040516331a9108f60e11b81526001600160801b03909116600482015233916001600160a01b031690636352211e90602401602060405180830381865afa15801561275a573d6000803e3d6000fd5b505050506040513d601f19601f8201168201806040525081019061277e9190615728565b6001600160a01b0316146127a557604051632c8348bb60e01b815260040160405180910390fd5b600c60008c8152602001908152602001600020600088600001516001600160801b031681526020019081526020016000209250600d600088602001516001600160801b0316815260200190815260200160002060008c8152602001908152602001600020915086602001516001600160801b03168360000160009054906101000a90046001600160f81b03166001600160f81b031614158061285057508254600160f81b900460ff16155b806128715750865182546001600160f81b03166001600160801b0390911614155b8061288557508154600160f81b900460ff16155b156128a3576040516366640ced60e11b815260040160405180910390fd5b60036000818152600b6020908152898101516001600160801b031682526000805160206159e183398151915290526040902094506128e290858a613160565b9550336001600160a01b03167f89d57e873af45054d40b801ca64ca06a1627c5682ab9be494a9f2846ef157d8a878d8a600001518b6020015160405161294d949392919093845260208401929092526001600160801b03908116604084015216606082015260800190565b60405180910390a260010161260c565b5050505050505050505050565b60008060005b85811015612378576000848152600a6020526040808220549051632f745c5960e01b81526001600160a01b0388811660048301526024820185905290911690632f745c5990604401602060405180830381865afa1580156129d5573d6000803e3d6000fd5b505050506040513d601f19601f820116820180604052508101906129f9919061558a565b6000868152600c60209081526040808320848452909152902054909150600160f81b900460ff1615612af8576000858152600c6020908152604080832084845282528083205460038452600a9092526000805160206159c18339815191525490516331a9108f60e11b81526001600160f81b039092166004830181905292916001600160a01b0390911690636352211e90602401602060405180830381865afa158015612aaa573d6000803e3d6000fd5b505050506040513d601f19601f82011682018060405250810190612ace9190615728565b9050876001600160a01b0316816001600160a01b031614612af557612af28561556f565b94505b50505b50612b028161556f565b9050612970565b60606000846001600160401b03811115612b2557612b25615543565b604051908082528060200260200182016040528015612b5e57816020015b612b4b614ed0565b815260200190600190039081612b435790505b5090506000805b6000858152600a6020526040908190205490516370a0823160e01b81526001600160a01b038881166004830152909116906370a0823190602401602060405180830381865afa158015612bbc573d6000803e3d6000fd5b505050506040513d601f19601f82011682018060405250810190612be0919061558a565b811015612f10576000858152600a6020526040808220549051632f745c5960e01b81526001600160a01b0389811660048301526024820185905290911690632f745c5990604401602060405180830381865afa158015612c44573d6000803e3d6000fd5b505050506040513d601f19601f82011682018060405250810190612c68919061558a565b6000878152600c60209081526040808320848452909152902054909150600160f81b900460ff1615612eff576000868152600c6020908152604080832084845282528083205460038452600a9092526000805160206159c18339815191525490516331a9108f60e11b81526001600160f81b039092166004830181905292916001600160a01b0390911690636352211e90602401602060405180830381865afa158015612d19573d6000803e3d6000fd5b505050506040513d601f19601f82011682018060405250810190612d3d9190615728565b9050886001600160a01b0316816001600160a01b031614612efc5760008281526000805160206159e183398151915260205260408120546001600160501b03169081612d8a576000612e00565b604051632c018f9160e01b8152600360048201526001600160a01b0384166024820152604481018590523090632c018f9190606401602060405180830381865afa158015612ddc573d6000803e3d6000fd5b505050506040513d601f19601f82011682018060405250810190612e00919061558a565b90506000808311612e12576000612e1e565b612e1e60038587614527565b9050612e3d604051806040016040528060008152602001600081525090565b6000868152600d602090815260408083208f8452909152902054600160f81b900460ff1615612e9a57506040805180820182526000878152600d60209081528382208f83528152929020546001600160f81b031681529081018c90525b60006040518060c0016040528060038152602001888152602001868152602001858152602001848152602001838152509050808b8b81518110612edf57612edf615559565b602002602001018190525089612ef49061556f565b995050505050505b50505b50612f098161556f565b9050612b65565b509095945050505050565b612f2484612381565b6000808381805b8281101561305d57878782818110612f4557612f45615559565b60008c8152600b6020908152604080832093820295909501358083529281528482208e8352600a909152908490205493516331a9108f60e11b815260048101839052919850945033926001600160a01b03169150636352211e90602401602060405180830381865afa158015612fbf573d6000803e3d6000fd5b505050506040513d601f19601f82011682018060405250810190612fe39190615728565b6001600160a01b03161461300a57604051632e6c18c960e11b815260040160405180910390fd5b613015898388613160565b60408051828152602081018890529195508a9133917fd334b3114fc25cbd72389ff9c361d5f8b0924e35fa237c65ac209a2cdcf4ba13910160405180910390a3600101612f2b565b505050505050505050565b600061307342613e61565b61307c42613e45565b61308790603c6155cd565b613091919061552b565b61309b9042615655565b905090565b60006001600160ff1b0382111561310a5760405162461bcd60e51b815260206004820152602860248201527f53616665436173743a2076616c756520646f65736e27742066697420696e2061604482015267371034b73a191a9b60c11b6064820152608401611f17565b5090565b60008082121561310a5760405162461bcd60e51b815260206004820181905260248201527f53616665436173743a2076616c7565206d75737420626520706f7369746976656044820152606401611f17565b6000806001856004811061317657613176615559565b60020201805485549192506000916131ac91610fbb91600160a01b9091046001600160601b0316906001600160501b03166155cd565b8554909150670de0b6b3a7640000906131d390610fca90600160501b900460150b84615616565b6131dd9190615602565b92506131e881614d7c565b85546001600160b01b0391909116600160501b026001600160501b0390911617855582156132a55760405163a9059cbb60e01b81526001600160a01b038581166004830152602482018590527f0000000000000000000000000000000000000000000000000000000000000000169063a9059cbb906044016020604051808303816000875af115801561327f573d6000803e3d6000fd5b505050506040513d601f19601f820116820180604052508101906132a3919061566c565b505b50509392505050565b6132b783612381565b600080828180805b83811015613459578787828181106132d9576132d9615559565b6132ef9260206040909202019081019150615759565b60008a8152600b6020908152604080832063ffffffff94909416808452939091529020805491975092506001600160501b03166133c7576000898152600a6020526040908190205490516331a9108f60e11b81526004810188905233916001600160a01b031690636352211e90602401602060405180830381865afa15801561337c573d6000803e3d6000fd5b505050506040513d601f19601f820116820180604052508101906133a09190615728565b6001600160a01b0316146133c757604051632e6c18c960e11b815260040160405180910390fd5b8787828181106133d9576133d9615559565b90506040020160200160208101906133f19190615774565b6001600160e01b03169450613407898387614df9565b613411858461552b565b60408051878152602081018990529194508a9133917f8863bdbe28273fa04cbc67c9e51785cff607a419b43ee367e4c3c01edb1d7b56910160405180910390a36001016132bf565b5081156134f7576040516323b872dd60e01b8152336004820152306024820152604481018390527f00000000000000000000000000000000000000000000000000000000000000006001600160a01b0316906323b872dd906064016020604051808303816000875af11580156134d3573d6000803e3d6000fd5b505050506040513d601f19601f8201168201806040525081019061305d919061566c565b5050505050505050565b6000546001600160a01b031633146110935760405162461bcd60e51b815260206004820181905260248201527f4f776e61626c653a2063616c6c6572206973206e6f7420746865206f776e65726044820152606401611f17565b600080546001600160a01b038381166001600160a01b0319831681178455604051919092169283917f8be0079c531659141344cd1fd0a4f28419497f9722a3daafe3b4186f6b6457e09190a35050565b600080826020015161ffff169050826080015181815181106135cf576135cf615559565b60200260200101516000015165ffffffffffff164210156135f05792915050565b506040805160808082018352600080835260208084018290529383018190526060830152840151519184015161ffff16915b80831015613684578460800151838151811061364057613640615559565b6020026020010151915042826000015165ffffffffffff161161367957816020015165ffffffffffff1642116136795750909392505050565b826001019250613622565b60405162461bcd60e51b8152602060048201526012602482015271191a5cdd1c9a589d5d1a5bdb88195b99195960721b6044820152606401611f17565b604080516060810182526000808252602082018190529181018290528291906000805b84811015613aea578686828181106136fe576136fe615559565b905060600201803603810190613714919061579d565b60036000908152600b60209081528083015163ffffffff1682526000805160206159e1833981519152905260409020805491945092506001600160501b03166139b8576000888152600a60205260409081902054845191516331a9108f60e11b815263ffffffff909216600483015233916001600160a01b0390911690636352211e90602401602060405180830381865afa1580156137b7573d6000803e3d6000fd5b505050506040513d601f19601f820116820180604052508101906137db9190615728565b6001600160a01b031614158061381857506000888152600c60209081526040808320865163ffffffff168452909152902054600160f81b900460ff165b156138365760405163185c32a160e21b815260040160405180910390fd5b6003600052600a60209081526000805160206159c183398151915254908401516040516331a9108f60e11b815263ffffffff909116600482015233916001600160a01b031690636352211e90602401602060405180830381865afa1580156138a2573d6000803e3d6000fd5b505050506040513d601f19601f820116820180604052508101906138c69190615728565b6001600160a01b0316141580613904575060208381015163ffffffff166000908152600d825260408082208b83529092522054600160f81b900460ff165b1561392257604051636f395b0f60e11b815260040160405180910390fd5b6040805180820182526020808601805163ffffffff9081168452600183850181815260008f8152600c86528781208b51851682528652878120965191511515600160f81b9081026001600160f81b0393841617909755875180890189528b518516815280870193845294519093168352600d85528683208f84529094529490209051935115159092029216919091179055613a4b565b60208381015163ffffffff9081166000908152600d835260408082208c8352909352919091205484516001600160f81b039091169116141580613a2d57506000888152600c60209081526040808320865163ffffffff9081168552908352922054908501516001600160f81b03909116911614155b15613a4b5760405163ba52c1b560e01b815260040160405180910390fd5b613a6460038385604001516001600160c01b0316614df9565b6040830151613a7c906001600160c01b03168561552b565b604084810151855160208088015184516001600160c01b0390941684529083018d905263ffffffff91821683850152166060820152905191955033917fb3f27c1805319c01731f5717816fcfc579c3452c5ff4ffadc41284a7288f24ef9181900360800190a26001016136e4565b508215613b88576040516323b872dd60e01b8152336004820152306024820152604481018490527f00000000000000000000000000000000000000000000000000000000000000006001600160a01b0316906323b872dd906064016020604051808303816000875af1158015613b64573d6000803e3d6000fd5b505050506040513d601f19601f820116820180604052508101906134f7919061566c565b50505050505050565b613b9a84612381565b600080838180805b83811015613d9f57888882818110613bbc57613bbc615559565b613bd29260206040909202019081019150615759565b63ffffffff169550888882818110613bec57613bec615559565b9050604002016020016020810190613c049190615774565b60008b8152600a6020526040908190205490516331a9108f60e11b8152600481018990526001600160e01b0392909216965033916001600160a01b0390911690636352211e90602401602060405180830381865afa158015613c6a573d6000803e3d6000fd5b505050506040513d601f19601f82011682018060405250810190613c8e9190615728565b6001600160a01b031614613cb557604051632e6c18c960e11b815260040160405180910390fd5b60008a8152600b60209081526040808320898452909152902080549092506001600160501b0316851415613d32576000613cf08b848a613160565b60408051828152602081018a90529192508c9133917fd334b3114fc25cbd72389ff9c361d5f8b0924e35fa237c65ac209a2cdcf4ba13910160405180910390a3505b613d3d8a8387614702565b613d47858461552b565b604080518781526001600160a01b038a1660208201529081018890529093508a9033907f46916533b23d6665275e4143ec7eeb4b6b4ae92178ebbfe99f112564d2c7b1aa9060600160405180910390a3600101613ba2565b50811561305d5760405163a9059cbb60e01b81526001600160a01b038781166004830152602482018490527f0000000000000000000000000000000000000000000000000000000000000000169063a9059cbb906044016020604051808303816000875af1158015613e15573d6000803e3d6000fd5b505050506040513d601f19601f82011682018060405250810190613e39919061566c565b50505050505050505050565b600080613e54610e1084615824565b9050611f99603c82615602565b6000610720603c83615824565b600060018460048110613e8357613e83615559565b8454600291909102919091019150829081908590600090613eae9084906001600160501b0316615838565b92506101000a8154816001600160501b0302191690836001600160501b03160217905550806001600160501b03168260000160088282829054906101000a90046001600160601b0316613f01919061585a565b82546101009290920a6001600160601b038181021990931691831602179091558354613f409250613f3b91600160a01b90910416856155cd565b614d7c565b84548590600a90613f5c908490600160501b900460150b61587c565b92506101000a8154816001600160b01b03021916908360150b6001600160b01b031602179055505050505050565b6040805160608101825260008082526020820181905291810182905281906000808086815b8181101561295d57898982818110613fc957613fc9615559565b905060600201803603810190613fdf919061579d565b60008c8152600a60205260409081902054825191516331a9108f60e11b815263ffffffff90921660048301529197506001600160a01b0390911690636352211e90602401602060405180830381865afa158015614040573d6000803e3d6000fd5b505050506040513d601f19601f820116820180604052508101906140649190615728565b6003600052600a60209081526000805160206159c183398151915254908801516040516331a9108f60e11b815263ffffffff90911660048201529199506001600160a01b031690636352211e90602401602060405180830381865afa1580156140d1573d6000803e3d6000fd5b505050506040513d601f19601f820116820180604052508101906140f59190615728565b96506001600160a01b0388163314614130576001600160a01b03871633146141305760405163325d926560e01b815260040160405180910390fd5b600c60008c81526020019081526020016000206000876000015163ffffffff1681526020019081526020016000209450600d6000876020015163ffffffff16815260200190815260200160002060008c81526020019081526020016000209350856020015163ffffffff168560000160009054906101000a90046001600160f81b03166001600160f81b03161415806141d257508454600160f81b900460ff16155b806141f05750855184546001600160f81b031663ffffffff90911614155b8061420457508354600160f81b900460ff16155b15614222576040516366640ced60e11b815260040160405180910390fd5b60036000908152600b60209081528781015163ffffffff1682526000805160206159e183398151915290526040902092506001600160a01b038881169088161461429f57825460408701516001600160c01b03166001600160501b039091161461429f5760405163e373a08560e01b815260040160405180910390fd5b825460408701516001600160c01b03166001600160501b0390911614156143fe5760006142ce6003858a613160565b9050600c60008d81526020019081526020016000206000886000015163ffffffff168152602001908152602001600020600080820160006101000a8154906001600160f81b03021916905560008201601f6101000a81549060ff02191690555050600d6000886020015163ffffffff16815260200190815260200160002060008d8152602001908152602001600020600080820160006101000a8154906001600160f81b03021916905560008201601f6101000a81549060ff02191690555050336001600160a01b03167f89d57e873af45054d40b801ca64ca06a1627c5682ab9be494a9f2846ef157d8a828e8a600001518b602001516040516143f49493929190938452602084019290925263ffffffff908116604084015216606082015260800190565b60405180910390a2505b61441760038488604001516001600160c01b0316614702565b604086810151905163a9059cbb60e01b81526001600160a01b038a811660048301526001600160c01b0390921660248201527f00000000000000000000000000000000000000000000000000000000000000009091169063a9059cbb906044016020604051808303816000875af1158015614496573d6000803e3d6000fd5b505050506040513d601f19601f820116820180604052508101906144ba919061566c565b5060408681015187516020808a015184516001600160c01b0390941684529083018f905263ffffffff91821683850152166060820152905133917f63a13470c4507d4f2c9d1bad1b7d603229456f8ebe7d3048d5cd8a02cf8d1ee6919081900360800190a2600101613faf565b6000806001856004811061453d5761453d615559565b6040805160a08101825260029290920292909201805465ffffffffffff8116835261ffff600160301b8204166020808501919091526001600160601b03600160401b8304811685870152600160a01b90920490911660608401526001820180548551818402810184019096528086529394929360808601939260009084015b82821015614628576000848152602090819020604080516080810182529185015465ffffffffffff8082168452600160301b820416838501526001600160501b03600160601b8204811692840192909252600160b01b90041660608201528252600190920191016145bc565b505050508152505090506000808614614659576000868152600b602090815260408083208784529091529020614672565b6001600160a01b03851660009081526009602052604090205b6040805180820190915290546001600160501b0381168252600160501b900460150b6020808301919091528301519091506000906146b590889061ffff166109d9565b90508260400151816040015183600001516146d091906158cd565b6146db9060186158cd565b6001600160501b03166146ee91906158fc565b6001600160601b0316979650505050505050565b81546001600160501b031681111561472d57604051639acaefc760e01b815260040160405180910390fd5b60006001846004811061474257614742615559565b845460029190910291909101915082908190859060009061476d9084906001600160501b0316615922565b92506101000a8154816001600160501b0302191690836001600160501b03160217905550806001600160501b03168260000160088282829054906101000a90046001600160601b03166147c0919061594a565b82546101009290920a6001600160601b0381810219909316918316021790915583546147fa9250613f3b91600160a01b90910416856155cd565b84548590600a90613f5c908490600160501b900460150b61596a565b6000828152600a60205260408082205490516370a0823160e01b81526001600160a01b038481166004830152839283929116906370a0823190602401602060405180830381865afa15801561486f573d6000803e3d6000fd5b505050506040513d601f19601f82011682018060405250810190614893919061558a565b905060005b81811015614964576000868152600a602052604090819020549051632f745c5960e01b81526001600160a01b0387811660048301526024820184905290911690632f745c5990604401602060405180830381865afa1580156148fe573d6000803e3d6000fd5b505050506040513d601f19601f82011682018060405250810190614922919061558a565b6000878152600b60209081526040808320848452909152902054909350614952906001600160501b03168561552b565b935061495d8161556f565b9050614898565b50505092915050565b60016000908152600a6020527fbbc70db1b6c7afd11e79c0fb0051300458f1a3acb8ee9789d9b6b26c61ad9bc7546040516370a0823160e01b81526001600160a01b038481166004830152839283928392839216906370a0823190602401602060405180830381865afa1580156149e8573d6000803e3d6000fd5b505050506040513d601f19601f82011682018060405250810190614a0c919061558a565b905060005b81811015614b73576001600052600a6020527fbbc70db1b6c7afd11e79c0fb0051300458f1a3acb8ee9789d9b6b26c61ad9bc754604051632f745c5960e01b81526001600160a01b0389811660048301526024820184905290911690632f745c5990604401602060405180830381865afa158015614a93573d6000803e3d6000fd5b505050506040513d601f19601f82011682018060405250810190614ab7919061558a565b60008181527fd421a5181c571bba3f01190c922c3b2a896fc1d84e86c9f17ac10e67ebef8b5c6020526040902054909550600160f81b900460ff1615614b635760008581527fd421a5181c571bba3f01190c922c3b2a896fc1d84e86c9f17ac10e67ebef8b5c60209081526040808320546001600160f81b03168084526000805160206159e183398151915290925290912054909350614b60906001600160501b03168761552b565b95505b614b6c8161556f565b9050614a11565b506002600052600a6020527fbff4442b8ed600beeb8e26b1279a0f0d14c6edfaec26d968ee13c86f7d4c2ba8546040516370a0823160e01b81526001600160a01b038881166004830152909116906370a0823190602401602060405180830381865afa158015614be7573d6000803e3d6000fd5b505050506040513d601f19601f82011682018060405250810190614c0b919061558a565b905060005b81811015614d72576002600052600a6020527fbff4442b8ed600beeb8e26b1279a0f0d14c6edfaec26d968ee13c86f7d4c2ba854604051632f745c5960e01b81526001600160a01b0389811660048301526024820184905290911690632f745c5990604401602060405180830381865afa158015614c92573d6000803e3d6000fd5b505050506040513d601f19601f82011682018060405250810190614cb6919061558a565b60008181527f5d6016397a73f5e079297ac5a36fef17b4d9c3831618e63ab105738020ddd7206020526040902054909450600160f81b900460ff1615614d625760008481527f5d6016397a73f5e079297ac5a36fef17b4d9c3831618e63ab105738020ddd72060209081526040808320546001600160f81b03168084526000805160206159e183398151915290925290912054909350614d5f906001600160501b03168761552b565b95505b614d6b8161556f565b9050614c10565b5050505050919050565b60006001600160af1b03198212801590614d9d57506001600160af1b038213155b61310a5760405162461bcd60e51b815260206004820152602760248201527f53616665436173743a2076616c756520646f65736e27742066697420696e20316044820152663736206269747360c81b6064820152608401611f17565b614e0c670de0b6b3a764000060016155cd565b811015614e2b5760405162a1ceb560e71b815260040160405180910390fd5b60018360048110614e3e57614e3e615559565b6002020160010160018460048110614e5857614e58615559565b60020201548154600160301b90910461ffff16908110614e7a57614e7a615559565b60009182526020909120015482546001600160501b03600160b01b909204821691614ea691168361552b565b1115614ec557604051633c0eb0dd60e21b815260040160405180910390fd5b61107c838383613e6e565b6040518060c001604052806000815260200160008152602001600081526020016000815260200160008152602001614f1b604051806040016040528060008152602001600081525090565b905290565b60405180606001604052806000815260200160008152602001614f1b60408051608081018252600080825260208201819052918101829052606081019190915290565b6001600160a01b03811681146115aa57600080fd5b600060208284031215614f8a57600080fd5b8135611f9981614f63565b805182526020810151602083015260408101516040830152606081015160608301526080810151608083015260a0810151805160a0840152602081015160c0840152505050565b6020808252825182820181905260009190848201906040850190845b8181101561501e5761500b838551614f95565b9284019260e09290920191600101614ff8565b50909695505050505050565b60008083601f84011261503c57600080fd5b5081356001600160401b0381111561505357600080fd5b6020830191508360208260061b850101111561506e57600080fd5b9250929050565b60008060008060006060868803121561508d57600080fd5b85356001600160401b03808211156150a457600080fd5b6150b089838a0161502a565b909750955060208801359150808211156150c957600080fd5b506150d68882890161502a565b90945092505060408601356150ea81614f63565b809150509295509295909350565b6000806040838503121561510b57600080fd5b50508035926020909101359150565b65ffffffffffff8082511683528060208301511660208401525060408101516001600160501b03808216604085015280606084015116606085015250505050565b60808101610720828461511a565b60008083601f84011261517b57600080fd5b5081356001600160401b0381111561519257600080fd5b6020830191508360208260051b850101111561506e57600080fd5b600080602083850312156151c057600080fd5b82356001600160401b038111156151d657600080fd5b6151e285828601615169565b90969095509350505050565b60008060006060848603121561520357600080fd5b83359250602084013561521581614f63565b929592945050506040919091013590565b6000806020838503121561523957600080fd5b82356001600160401b0381111561524f57600080fd5b6151e28582860161502a565b60008060006040848603121561527057600080fd5b83356001600160401b0381111561528657600080fd5b61529286828701615169565b90945092505060208401356152a681614f63565b809150509250925092565b8051825260208101516020830152604081015161107c604084018261511a565b61030081016152e082876152b1565b6152ed60c08301866152b1565b6152fb6101808301856152b1565b6153096102408301846152b1565b95945050505050565b60006020828403121561532457600080fd5b5035919050565b60008083601f84011261533d57600080fd5b5081356001600160401b0381111561535457600080fd5b60208301915083602060608302850101111561506e57600080fd5b6000806000806040858703121561538557600080fd5b84356001600160401b038082111561539c57600080fd5b6153a88883890161532b565b909650945060208701359150808211156153c157600080fd5b506153ce8782880161532b565b95989497509550505050565b6000806000604084860312156153ef57600080fd5b83356001600160401b0381111561540557600080fd5b6152928682870161502a565b600080600080600060a0868803121561542957600080fd5b505083359560208501359550604085013594606081013594506080013592509050565b6000806040838503121561545f57600080fd5b82359150602083013561547181614f63565b809150509250929050565b60008060006060848603121561549157600080fd5b505081359360208301359350604090920135919050565b60e081016107208284614f95565b600080600080604085870312156154cc57600080fd5b84356001600160401b03808211156154e357600080fd5b6154ef8883890161502a565b9096509450602087013591508082111561550857600080fd5b506153ce8782880161502a565b634e487b7160e01b600052601160045260246000fd5b6000821982111561553e5761553e615515565b500190565b634e487b7160e01b600052604160045260246000fd5b634e487b7160e01b600052603260045260246000fd5b600060001982141561558357615583615515565b5060010190565b60006020828403121561559c57600080fd5b5051919050565b600065ffffffffffff8083168185168083038211156155c4576155c4615515565b01949350505050565b60008160001904831182151516156155e7576155e7615515565b500290565b634e487b7160e01b600052601260045260246000fd5b600082615611576156116155ec565b500490565b60008083128015600160ff1b85018412161561563457615634615515565b6001600160ff1b038401831381161561564f5761564f615515565b50500390565b60008282101561566757615667615515565b500390565b60006020828403121561567e57600080fd5b81518015158114611f9957600080fd5b634e487b7160e01b600052603160045260246000fd5b80356001600160801b03811681146156bb57600080fd5b919050565b6000604082840312156156d257600080fd5b604051604081018181106001600160401b038211171561570257634e487b7160e01b600052604160045260246000fd5b60405261570e836156a4565b815261571c602084016156a4565b60208201529392505050565b60006020828403121561573a57600080fd5b8151611f9981614f63565b803563ffffffff811681146156bb57600080fd5b60006020828403121561576b57600080fd5b611f9982615745565b60006020828403121561578657600080fd5b81356001600160e01b0381168114611f9957600080fd5b6000606082840312156157af57600080fd5b604051606081018181106001600160401b03821117156157df57634e487b7160e01b600052604160045260246000fd5b6040526157eb83615745565b81526157f960208401615745565b602082015260408301356001600160c01b038116811461581857600080fd5b60408201529392505050565b600082615833576158336155ec565b500690565b60006001600160501b038083168185168083038211156155c4576155c4615515565b60006001600160601b038083168185168083038211156155c4576155c4615515565b6000601582810b9084900b82821280156001600160af1b03849003831316156158a7576158a7615515565b6001600160af1b031983900382128116156158c4576158c4615515565b50019392505050565b60006001600160501b03808316818516818304811182151516156158f3576158f3615515565b02949350505050565b60006001600160601b0380841680615916576159166155ec565b92169190910492915050565b60006001600160501b038381169083168181101561594257615942615515565b039392505050565b60006001600160601b038381169083168181101561594257615942615515565b60008160150b8360150b60008112816a01ffffffffffffffffffff60af1b0183128115161561599b5761599b615515565b6001600160af1b03820183138116156159b6576159b6615515565b509003939250505056fea856840544dc26124927add067d799967eac11be13e14d82cc281ea46fa3975964c15cc42be7899b001f818cf4433057002112c418d1d3a67cd5cb453051d33ea264697066735822122012c00ea4a423826cc29757aec1f6286fcbeb51dcb92aef34ae757f53a23d81c064736f6c634300080a0033",
    "sourcePath": "c:/Users/User/Documents/Security-Research/optimized-ape-staking-public/contracts/OptimizedApeCoinStaking.sol",
    "compiler": {
        "name": "solc",
        "version": "0.8.10+commit.fc410830"
    },
    "functionHashes": {
        "addTimeRange(uint256,uint256,uint256,uint256,uint256)": "bb628f20",
        "claimApeCoin(address)": "2ee2de66",
        "claimBAKC((uint128,uint128)[],(uint128,uint128)[],address)": "07f5fa4a",
        "claimBAYC(uint256[],address)": "b682e859",
        "claimMAYC(uint256[],address)": "57a26300",
        "claimSelfApeCoin()": "8279e760",
        "claimSelfBAKC((uint128,uint128)[],(uint128,uint128)[])": "e0347e4f",
        "claimSelfBAYC(uint256[])": "20a325d0",
        "claimSelfMAYC(uint256[])": "381b4682",
        "depositApeCoin(uint256,address)": "bd5023a9",
        "depositBAKC((uint32,uint32,uint192)[],(uint32,uint32,uint192)[])": "aa239f52",
        "depositBAYC((uint32,uint224)[])": "46583a05",
        "depositMAYC((uint32,uint224)[])": "8ecbffa7",
        "depositSelfApeCoin(uint256)": "9dcaafb4",
        "getAddressPosition(address)": "280698db",
        "getAllStakes(address)": "04238994",
        "getApeCoinStake(address)": "d9f11fb2",
        "getBakcStakes(address)": "00191b44",
        "getBakcToMain(uint256,uint256)": "dbe0c97b",
        "getBaycStakes(address)": "9860037e",
        "getMainToBakc(uint256,uint256)": "ad16ae21",
        "getMaycStakes(address)": "f4c6f602",
        "getNftPosition(uint256,uint256)": "c5a02900",
        "getPoolsUI()": "770dade5",
        "getSplitStakes(address)": "0ed368f1",
        "getTimeRangeBy(uint256,uint256)": "09e833c6",
        "owner()": "8da5cb5b",
        "pendingRewards(uint256,address,uint256)": "2c018f91",
        "removeLastTimeRange(uint256)": "d363dc17",
        "renounceOwnership()": "715018a6",
        "rewardsBy(uint256,uint256,uint256)": "d7464ee9",
        "stakedTotal(address)": "f5679189",
        "transferOwnership(address)": "f2fde38b",
        "withdrawApeCoin(uint256,address)": "e4e81847",
        "withdrawBAKC((uint32,uint32,uint192)[],(uint32,uint32,uint192)[])": "c9006616",
        "withdrawBAYC((uint32,uint224)[],address)": "aceb3629",
        "withdrawMAYC((uint32,uint224)[],address)": "ed23c906",
        "withdrawSelfApeCoin(uint256)": "7f60d338",
        "withdrawSelfBAYC((uint32,uint224)[])": "fe31446c",
        "withdrawSelfMAYC((uint32,uint224)[])": "c63389c3"
    },
    "gasEstimates": {
        "creation": {
            "codeDepositCost": "4618800",
            "executionCost": "infinite",
            "totalCost": "infinite"
        },
        "external": {
            "addTimeRange(uint256,uint256,uint256,uint256,uint256)": "infinite",
            "claimApeCoin(address)": "infinite",
            "claimBAKC((uint128,uint128)[],(uint128,uint128)[],address)": "infinite",
            "claimBAYC(uint256[],address)": "infinite",
            "claimMAYC(uint256[],address)": "infinite",
            "claimSelfApeCoin()": "infinite",
            "claimSelfBAKC((uint128,uint128)[],(uint128,uint128)[])": "infinite",
            "claimSelfBAYC(uint256[])": "infinite",
            "claimSelfMAYC(uint256[])": "infinite",
            "depositApeCoin(uint256,address)": "infinite",
            "depositBAKC((uint32,uint32,uint192)[],(uint32,uint32,uint192)[])": "infinite",
            "depositBAYC((uint32,uint224)[])": "infinite",
            "depositMAYC((uint32,uint224)[])": "infinite",
            "depositSelfApeCoin(uint256)": "infinite",
            "getAddressPosition(address)": "2832",
            "getAllStakes(address)": "infinite",
            "getApeCoinStake(address)": "infinite",
            "getBakcStakes(address)": "infinite",
            "getBakcToMain(uint256,uint256)": "2843",
            "getBaycStakes(address)": "infinite",
            "getMainToBakc(uint256,uint256)": "2844",
            "getMaycStakes(address)": "infinite",
            "getNftPosition(uint256,uint256)": "2819",
            "getPoolsUI()": "infinite",
            "getSplitStakes(address)": "infinite",
            "getTimeRangeBy(uint256,uint256)": "5267",
            "owner()": "2368",
            "pendingRewards(uint256,address,uint256)": "infinite",
            "removeLastTimeRange(uint256)": "31876",
            "renounceOwnership()": "infinite",
            "rewardsBy(uint256,uint256,uint256)": "infinite",
            "stakedTotal(address)": "infinite",
            "transferOwnership(address)": "infinite",
            "withdrawApeCoin(uint256,address)": "infinite",
            "withdrawBAKC((uint32,uint32,uint192)[],(uint32,uint32,uint192)[])": "infinite",
            "withdrawBAYC((uint32,uint224)[],address)": "infinite",
            "withdrawMAYC((uint32,uint224)[],address)": "infinite",
            "withdrawSelfApeCoin(uint256)": "infinite",
            "withdrawSelfBAYC((uint32,uint224)[])": "infinite",
            "withdrawSelfMAYC((uint32,uint224)[])": "infinite"
        },
        "internal": {
            "_claim(uint256,struct OptimizedApeCoinStaking.Position storage pointer,address)": "infinite",
            "_claimNft(uint256,uint256[] calldata,address)": "infinite",
            "_claimPairNft(uint256,struct OptimizedApeCoinStaking.PairNft calldata[] calldata,address)": "infinite",
            "_deposit(uint256,struct OptimizedApeCoinStaking.Position storage pointer,uint256)": "infinite",
            "_depositNft(uint256,struct OptimizedApeCoinStaking.SingleNft calldata[] calldata)": "infinite",
            "_depositNftGuard(uint256,struct OptimizedApeCoinStaking.Position storage pointer,uint256)": "infinite",
            "_depositPairNft(uint256,struct OptimizedApeCoinStaking.PairNftWithAmount calldata[] calldata)": "infinite",
            "_estimate24HourRewards(uint256,address,uint256)": "infinite",
            "_getSplitStakeCount(uint256,address,uint256)": "infinite",
            "_getSplitStakes(uint256,address,uint256)": "infinite",
            "_getStakes(address,uint256)": "infinite",
            "_stakedTotal(uint256,address)": "infinite",
            "_stakedTotalPair(address)": "infinite",
            "_withdraw(uint256,struct OptimizedApeCoinStaking.Position storage pointer,uint256)": "infinite",
            "_withdrawNft(uint256,struct OptimizedApeCoinStaking.SingleNft calldata[] calldata,address)": "infinite",
            "_withdrawPairNft(uint256,struct OptimizedApeCoinStaking.PairNftWithAmount calldata[] calldata)": "infinite",
            "getCurrentTimeRangeIndex(struct OptimizedApeCoinStaking.Pool memory)": "infinite",
            "getMinute(uint256)": "152",
            "getPreviousTimestampHour()": "infinite",
            "getSecond(uint256)": "82",
            "updatePool(uint256)": "infinite"
        }
    }
}